:0400000056EF00F0C7
:100008004782FACF03F0FBCF04F0E9CF05F0EACF3F
:1000180006F0E1CF07F0E2CF08F0D9CF09F0DACF48
:100028000AF0F3CF0BF0F4CF0CF0F6CF0DF0F7CFCA
:100038000EF0F8CF0FF0F5CF10F0F2AC15D00E019E
:10004800C4AD12D00E01CCAD0FD0CF90CDCF39F0CA
:10005800CECF3AF0000E026E000E016E9CEC03F05B
:10006800D2EC03F00E01CC9D10C0F5FF0FC0F8FFD5
:100078000EC0F7FF0DC0F6FF0CC0F4FF0BC0F3FF76
:100088000AC0DAFF09C0D9FF08C0E2FF07C0E1FFD4
:1000980006C0EAFF05C0E9FF04C0FBFF03C0FAFF82
:1000A80047921100C8EF02F0E70EF26E8DEC03F0F4
:1000B800AAEC03F0B5EC03F0000E886E000E126E89
:1000C8006B0E116E1AEC03F0B50E346E290E356EF8
:1000D800470E366E34C019F035C01AF036C01BF022
:1000E800310E1C6E800E1D6E3F0E1E6E50EC01F020
:1000F80019C02EF01AC02FF01BC030F034C019F010
:1001080035C01AF036C01BF0CD0E1C6EAC0E1D6E3D
:100118003F0E1E6E50EC01F019C028F01AC029F0ED
:100128001BC02AF034C019F035C01AF036C01BF0D5
:100138009E0E1C6E7F0E1D6E3F0E1E6E50EC01F063
:1001480019C031F01AC032F01BC033F034C019F0B6
:1001580035C01AF036C01BF0660E1C6E260E1D6EDA
:100168003F0E1E6E50EC01F019C02BF01AC02CF097
:100178001BC02DF02BC01CF02CC01DF02DC01EF094
:1001880039C019F03AC01AF05AEC03F019C01FF040
:100198001AC020F01BC021F080EC02F0D8B016D0B5
:1001A80039C019F03AC01AF05AEC03F019C01CF023
:1001B8001AC01DF01BC01EF028C01FF029C020F077
:1001C8002AC021F080EC02F0D8A02CD039C019F058
:1001D8003AC01AF05AEC03F019C01CF01AC01DF00E
:1001E8001BC01EF031C01FF032C020F033C021F018
:1001F80080EC02F0D8B01BD02EC01CF02FC01DF030
:1002080030C01EF039C019F03AC01AF05AEC03F0A9
:1002180019C01FF01AC020F01BC021F080EC02F0BA
:10022800D8B005D08868415001EC03F0A3D731C09D
:100238001CF032C01DF033C01EF039C019F03AC0AE
:100248001AF05AEC03F019C01FF01AC020F01BC0B6
:1002580021F080EC02F0D8B004D0000E886E30ECAB
:1002680003F039C019F03AC01AF05AEC03F019C07B
:100278001CF01AC01DF01BC01EF02EC01FF02FC0AE
:1002880020F030C021F080EC02F0D8B073D7000E17
:10029800886E45EC03F06ED71BC01FF0206A216AF8
:1002A8001A341F3601E320801F50226E2250D8A432
:1002B80007D0000E196E000E1A6E000E1B6E12008B
:1002C8001EC01FF0206A216A1D341F3601E32080FA
:1002D8001F50276E2750D8A407D0000E196E000EA5
:1002E8001A6E000E1B6E120027507B0F22261BC0B1
:1002F80027F01E50271A800E27161A8E1D8EFF0E05
:100308001C16FF0E1D16000E1E16000E236E000E84
:10031800246E000E256E070E266E19A006D01C50FE
:1003280023261D5024221E502522D8901B321A3213
:100338001932D8901C361D361E36262EEED7090ED9
:10034800266E19A006D01C5023261D5024221E50AC
:100358002522D8901B321A321932D89025322432ED
:100368002332262EEED723C011F024C012F025C068
:1003780013F022C014F027C015F029EC02F011C0C8
:1003880019F012C01AF013C01BF01200000E876E8D
:10039800000E866E000E836E000E846E000E856E53
:1003A800070E8C6E88688968FE0E8A6E8B68DF0E71
:1003B8000F01216F0F0119690F012669070E0F013F
:1003C8002E6F0F011169000E0F01256F000E0F012E
:1003D8002D6F000E0F01186F000E0F01106F000E29
:1003E8000F01206F000E0F012C6F000E0F010F6F11
:1003F800000E0F01176F000E0F011F6F000E0F0187
:10040800246F000EF2BE010E116EF29E550E0E0103
:10041800A06FAA0E0E01A06F0E01A091050E0E018D
:10042800F76F0E01AC81AC93AC85AC97AC89550ED7
:100438000E01A06FAA0E0E01A06F0E01A08111A0DF
:1004480002D0F28E1200F29E12001450D8B405D0D9
:10045800115012101310D8A40CD0000E116E000EFB
:10046800126E000E136E1200142AD8901332123234
:100478001132000E1114166E000E1214176EFE0EB5
:100488001314186E165017101810D8B40CD0ECD7D7
:10049800142A010E1126000E1222000E1322D890E3
:1004A800133212321132000E1114166E000E12148D
:1004B800176EFF0E1314186E165017101810D8B4B4
:1004C80006D0E6D71406D89011361236133612BE67
:1004D80003D0020E1460F6D714A0129ED8901432DE
:1004E800145013121550D8A4138E11C011F012C055
:1004F80012F013C013F012001EAE16D01CC022F06A
:100508001DC023F01EC024F0221E231E241E222AF2
:10051800000E23222422000E22241C6E000E23200B
:100528001D6E800E24201E6E21AE16D01FC022F034
:1005380020C023F021C024F0221E231E241E222ABC
:10054800000E23222422000E22241F6E000E2320D8
:10055800206E800E2420216E000E1C1A000E1D1A1B
:10056800800E1E1A000E1F1A000E201A800E211A65
:100578001F501C5C20501D5821501E58D8B002D066
:10058800D8901200D88012007A0EF66E070EF76E19
:10059800000EF86E00EE3FF010EE06F00900F5CF01
:1005A800EEFFE550E150FAE100EE37F0080EEE6A92
:1005B800E806FDE147904792000EF86E000158EFFB
:1005C80000F0320ECF6E000ED06E000ED16E010E0E
:1005D800D26E000ECE6E000ECD6ECD50CECF11F085
:1005E800126A11C012F0116A1110456E1250466E4F
:1005F8000E01CE91CEEC03F01200126E000E136EB7
:1006080010D0000E146E1450D8A40AD0150E116E16
:10061800C60EE82EFED7112EFCD700D0142AF3D729
:10062800132A1250135CD8B01200EBD7FF0E111624
:10063800030E1216ACA80BD0060ED890113612363F
:10064800E82EFBD71250AB6E11C0AAFF1200125051
:10065800AB6E11C0AAFF1200415001EC03F0C9ECC7
:1006680003F0415001EC03F0C6EC03F0415001ECFB
:1006780003F0C3EC03F0415001EC03F0C0EC03F0CD
:100688001200415001EC03F0C0EC03F0415001ECC2
:1006980003F0C3EC03F0415001EC03F0C6EC03F0A7
:1006A800415001EC03F0C9EC03F0120019C011F03D
:1006B8001AC012F0136A8E0E146E000E156E29EC15
:1006C80002F011C019F012C01AF013C01BF012008A
:1006D800700EB76E010EB96E000EB86E000EBA6ECF
:1006E800350EB66E000EB56E0E01CE97CCEC03F04B
:1006F8001200600E0E01D86F000E0E01DA6F000EA8
:100708000E01DC6F080E0E01DE6F000E0E01DD6FAC
:100718001200D0EC03F0CAEC01F07DEC03F0AAEC77
:1007280003F06CEC03F0E5EC02F0B5EC03F012001A
:10073800CFA407D0CF900250CE6E01C0CDFFCF809E
:1007480012000250CE6E01C0CDFF12008C0EAC6EAE
:10075800000EAB6E6B0EAA6EAE50FC0B0209AE6EAD
:100768001200820E0F01326F0E01CC9D0E01C48D56
:10077800120001001400E703000E836E1200020E3F
:10078800836E1200060E836E1200040E836E120032
:10079800B78E1200CF801200F29A1200CF8012009A
:020000040020DA
:10000000FF0FFF0FFF0FFF0FFF0FFF0FFF0FFF0F80
:020000040030CA
:0C0000008CFFFFFF9FFFFFFFFFFFFFFFD3
:00000001FF
