:040000004CEF00F0D1
:100008001F82FACF01F0FBCF02F0E9CF03F0EACF6D
:1000180004F0E1CF05F0E2CF06F0D9CF07F0DACF50
:1000280008F0F3CF09F0F4CF0AF0F6CF0BF0F7CFD2
:100038000CF0F8CF0DF0F5CF0EF0F2AC09D00E01B0
:10004800C4AD06D00E01CCAD03D038EC01F002D01F
:1000580042EC01F00EC0F5FF0DC0F8FF0CC0F7FF31
:100068000BC0F6FF0AC0F4FF09C0F3FF08C0DAFFAF
:1000780007C0D9FF06C0E2FF05C0E1FF04C0EAFFE0
:1000880003C0E9FF02C0FBFF01C0FAFF1F92110085
:10009800ADEF00F0000E876E000E866E000E836EC8
:1000A800000E846E000E856E070E8C6E8868896857
:1000B800FE0E8A6E8B68DF0E0F01216F0F01196922
:1000C8000F012669070E0F012E6F0F011169000E2F
:1000D8000F01256F000E0F012D6F000E0F01186F15
:1000E800000E0F01106F000E0F01206F000E0F01A0
:1000F8002C6F000E0F010F6F000E0F01176F000E0F
:100108000F011F6F000E0F01246F000EF2BE010ECB
:100118000F6EF29E550E0E01A06FAA0E0E01A06F73
:100128000E01A091050E0E01F76F0E01AC81AC9384
:10013800AC85AC97AC89550E0E01A06FAA0E0E01C6
:10014800A06F0E01A0810FA002D0F28E1200F29EC5
:100158001200900EF66E020EF76E000EF86E00EEAC
:1001680019F010EE04F00900F5CFEEFFE550E1506C
:10017800FAE100EE11F0080EEE6AE806FDE11F90C4
:100188001F92000EF86E000107EF01F0030ECF6E0C
:10019800000ED06E000ED16E010ED26E060ECE6E1F
:1001A800000ECD6ECD50CECF0FF0106A0FC010F0FC
:1001B8000F6A0F101D6E10501E6E0E01CE914CEC82
:1001C80001F01200700EB76E010EB96E000EB86E17
:1001D800000EBA6E350EB66E000EB56E0E01CE97D5
:1001E8004AEC01F01200600E0E01D86F000E0E01ED
:1001F800DA6F000E0E01DC6F080E0E01DE6F000EC6
:100208000E01DD6F1200E70EF26E16EC01F025EC20
:1002180001F030EC01F0000E886E3FEC01F00E01A9
:10022800CC8DFDD74EEC01F04EEC00F0F7EC00F071
:1002380025EC01F0E6EC00F0CAEC00F030EC01F03F
:1002480012008C0EAC6E000EAB6E6B0EAA6EAE502A
:10025800FC0B0209AE6E1200820E0F01326F0E0106
:10026800CC9D0E01C48D12000E01CC9DE70EF26EDE
:1002780045EC01F01200000E836E1200000E836E32
:100288001200060E836E12000100E703B78E1200FB
:08029800CF801200F29A12005F
:020000040020DA
:10000000FF0FFF0FFF0FFF0FFF0FFF0FFF0FFF0F80
:020000040030CA
:0C0000008CFFFFFF9FFFFFFFFFFFFFFFD3
:00000001FF
