:0400000056EF00F0C7
:100008004582FACF03F0FBCF04F0E9CF05F0EACF41
:1000180006F0E1CF07F0E2CF08F0D9CF09F0DACF48
:100028000AF0F3CF0BF0F4CF0CF0F6CF0DF0F7CFCA
:100038000EF0F8CF0FF0F5CF10F0F2AC15D00E019E
:10004800C4AD12D00E01CCAD0FD0CF90CDCF39F0CA
:10005800CECF3AF0000E026E000E016E77EC02F081
:10006800ACEC02F00E01CC9D10C0F5FF0FC0F8FFFC
:100078000EC0F7FF0DC0F6FF0CC0F4FF0BC0F3FF76
:100088000AC0DAFF09C0D9FF08C0E2FF07C0E1FFD4
:1000980006C0EAFF05C0E9FF04C0FBFF03C0FAFF82
:1000A80045921100F8EF01F01BC01FF0206A216A89
:1000B8001A341F3601E320801F50226E2250D8A424
:1000C80007D0000E196E000E1A6E000E1B6E12007D
:1000D8001EC01FF0206A216A1D341F3601E32080EC
:1000E8001F50276E2750D8A407D0000E196E000E97
:1000F8001A6E000E1B6E120027507B0F22261BC0A3
:1001080027F01E50271A800E27161A8E1D8EFF0EF6
:100118001C16FF0E1D16000E1E16000E236E000E76
:10012800246E000E256E070E266E19A006D01C50F0
:1001380023261D5024221E502522D8901B321A3205
:100148001932D8901C361D361E36262EEED7090ECB
:10015800266E19A006D01C5023261D5024221E509E
:100168002522D8901B321A321932D89025322432DF
:100178002332262EEED723C011F024C012F025C05A
:1001880013F022C014F027C015F0A1EC01F011C043
:1001980019F012C01AF013C01BF01200E70EF26E2D
:1001A80068EC02F085EC02F090EC02F0000E886E2C
:1001B800000E126E6B0E116E31EC02F0ED0E346E05
:1001C800280E356E470E366E34C019F035C01AF059
:1001D80036C01BF0EC0E1C6E810E1D6E3F0E1E6E9F
:1001E80058EC00F019C028F01AC029F01BC02AF0FA
:1001F80034C019F035C01AF036C01BF0140E1C6E4E
:10020800FE0E1D6E3F0E1E6E58EC00F019C02BF04E
:100218001AC02CF01BC02DF034C019F035C01AF0EC
:1002280036C01BF0D90E1C6E7E0E1D6E3F0E1E6E64
:1002380058EC00F019C02EF01AC02FF01BC030F097
:1002480034C019F035C01AF036C01BF09A0E1C6E77
:10025800190E1D6E3F0E1E6E58EC00F019C031F0DD
:100268001AC032F01BC033F0A1EC02F09EEC02F091
:100278009BEC02F098EC02F056EF00F0000E876E4F
:10028800000E866E000E836E000E846E000E856E64
:10029800070E8C6E88688968FE0E8A6E8B68DF0E82
:1002A8000F01216F0F0119690F012669070E0F0150
:1002B8002E6F0F011169000E0F01256F000E0F013F
:1002C8002D6F000E0F01186F000E0F01106F000E3A
:1002D8000F01206F000E0F012C6F000E0F010F6F22
:1002E800000E0F01176F000E0F011F6F000E0F0198
:1002F800246F000EF2BE010E116EF29E550E0E0115
:10030800A06FAA0E0E01A06F0E01A091050E0E019E
:10031800F76F0E01AC81AC93AC85AC97AC89550EE8
:100328000E01A06FAA0E0E01A06F0E01A08111A0F0
:1003380002D0F28E1200F29E12001450D8B405D0EA
:10034800115012101310D8A40CD0000E116E000E0C
:10035800126E000E136E1200142AD8901332123245
:100368001132000E1114166E000E1214176EFE0EC6
:100378001314186E165017101810D8B40CD0ECD7E8
:10038800142A010E1126000E1222000E1322D890F4
:10039800133212321132000E1114166E000E12149E
:1003A800176EFF0E1314186E165017101810D8B4C5
:1003B80006D0E6D71406D89011361236133612BE78
:1003C80003D0020E1460F6D714A0129ED8901432EF
:1003D800145013121550D8A4138E11C011F012C066
:1003E80012F013C013F01200480EF66E050EF76EE9
:1003F800000EF86E00EE3FF010EE04F00900F5CFA5
:10040800EEFFE550E150FAE100EE37F0080EEE6A33
:10041800E806FDE145904592000EF86E0001D2EF26
:1004280000F0320ECF6E000ED06E000ED16E010EAF
:10043800D26E000ECE6E000ECD6ECD50CECF11F026
:10044800126A11C012F0116A1110436E1250446EF4
:100458000E01CE91A8EC02F01200FF0E1116030E49
:100468001216ACA80BD0060ED89011361236E82E0C
:10047800FBD71250AB6E11C0AAFF12001250AB6E20
:1004880011C0AAFF1200700EB76E010EB96E000EF1
:10049800B86E000EBA6E350EB66E000EB56E0E0151
:1004A800CE97A6EC02F01200600E0E01D86F000E77
:1004B8000E01DA6F000E0E01DC6F080E0E01DE6F02
:1004C800000E0E01DD6F1200AAEC02F042EC01F002
:1004D80058EC02F085EC02F047EC02F015EC02F063
:1004E80090EC02F01200CFA407D0CF900250CE6E4D
:1004F80001C0CDFFCF8012000250CE6E01C0CDFFEB
:1005080012008C0EAC6E000EAB6E6B0EAA6EAE5067
:10051800FC0B0209AE6E1200820E0F01326F0E0143
:10052800CC9D0E01C48D1200000E836E1200020EC7
:10053800836E1200060E836E1200040E836E120084
:100548001400E703B78E1200CF801200F29A12004F
:04055800CF8012003E
:020000040020DA
:10000000FF0FFF0FFF0FFF0FFF0FFF0FFF0FFF0F80
:020000040030CA
:0C0000008CFFFFFF9FFFFFFFFFFFFFFFD3
:00000001FF
